{"abi":[{"type":"constructor","inputs":[{"name":"_startTime","type":"uint256","internalType":"uint256"},{"name":"_vault","type":"address","internalType":"address payable"},{"name":"_ogWallets","type":"address[]","internalType":"address[]"}],"stateMutability":"nonpayable"},{"type":"receive","stateMutability":"payable"},{"type":"function","name":"BPS","inputs":[],"outputs":[{"name":"","type":"uint256","internalType":"uint256"}],"stateMutability":"view"},{"type":"function","name":"MAX_MULT","inputs":[],"outputs":[{"name":"","type":"uint256","internalType":"uint256"}],"stateMutability":"view"},{"type":"function","name":"MIN_MULT","inputs":[],"outputs":[{"name":"","type":"uint256","internalType":"uint256"}],"stateMutability":"view"},{"type":"function","name":"OG_BONUS_BPS","inputs":[],"outputs":[{"name":"","type":"uint256","internalType":"uint256"}],"stateMutability":"view"},{"type":"function","name":"closePresale","inputs":[],"outputs":[],"stateMutability":"nonpayable"},{"type":"function","name":"contribute","inputs":[],"outputs":[],"stateMutability":"payable"},{"type":"function","name":"contributors","inputs":[{"name":"","type":"uint256","internalType":"uint256"}],"outputs":[{"name":"","type":"address","internalType":"address"}],"stateMutability":"view"},{"type":"function","name":"currentMultiplier","inputs":[],"outputs":[{"name":"","type":"uint256","internalType":"uint256"}],"stateMutability":"view"},{"type":"function","name":"currentPriceInfo","inputs":[],"outputs":[{"name":"bps","type":"uint256","internalType":"uint256"},{"name":"label","type":"string","internalType":"string"}],"stateMutability":"view"},{"type":"function","name":"getAllContributions","inputs":[],"outputs":[{"name":"wallets","type":"address[]","internalType":"address[]"},{"name":"amounts","type":"uint256[]","internalType":"uint256[]"},{"name":"weights","type":"uint256[]","internalType":"uint256[]"},{"name":"multipliers","type":"uint256[]","internalType":"uint256[]"},{"name":"isOGList","type":"bool[]","internalType":"bool[]"}],"stateMutability":"view"},{"type":"function","name":"getAllocationWeight","inputs":[{"name":"wallet","type":"address","internalType":"address"}],"outputs":[{"name":"weight","type":"uint256","internalType":"uint256"}],"stateMutability":"view"},{"type":"function","name":"getContribution","inputs":[{"name":"wallet","type":"address","internalType":"address"}],"outputs":[{"name":"","type":"uint256","internalType":"uint256"}],"stateMutability":"view"},{"type":"function","name":"getContributionDetails","inputs":[{"name":"wallet","type":"address","internalType":"address"}],"outputs":[{"name":"amounts","type":"uint256[]","internalType":"uint256[]"},{"name":"snapshots","type":"uint256[]","internalType":"uint256[]"},{"name":"mults","type":"uint256[]","internalType":"uint256[]"}],"stateMutability":"view"},{"type":"function","name":"getContributorAt","inputs":[{"name":"index","type":"uint256","internalType":"uint256"}],"outputs":[{"name":"","type":"address","internalType":"address"}],"stateMutability":"view"},{"type":"function","name":"getContributorCount","inputs":[],"outputs":[{"name":"","type":"uint256","internalType":"uint256"}],"stateMutability":"view"},{"type":"function","name":"hardCap","inputs":[],"outputs":[{"name":"","type":"uint256","internalType":"uint256"}],"stateMutability":"view"},{"type":"function","name":"hardCapDeadline","inputs":[],"outputs":[{"name":"","type":"uint256","internalType":"uint256"}],"stateMutability":"view"},{"type":"function","name":"hardCapDuration","inputs":[],"outputs":[{"name":"","type":"uint256","internalType":"uint256"}],"stateMutability":"view"},{"type":"function","name":"isActive","inputs":[],"outputs":[{"name":"","type":"bool","internalType":"bool"}],"stateMutability":"view"},{"type":"function","name":"isOG","inputs":[{"name":"wallet","type":"address","internalType":"address"}],"outputs":[{"name":"","type":"bool","internalType":"bool"}],"stateMutability":"view"},{"type":"function","name":"isStarted","inputs":[],"outputs":[{"name":"","type":"bool","internalType":"bool"}],"stateMutability":"view"},{"type":"function","name":"maxContribution","inputs":[],"outputs":[{"name":"","type":"uint256","internalType":"uint256"}],"stateMutability":"view"},{"type":"function","name":"minContribution","inputs":[],"outputs":[{"name":"","type":"uint256","internalType":"uint256"}],"stateMutability":"view"},{"type":"function","name":"ogWhitelist","inputs":[{"name":"","type":"address","internalType":"address"}],"outputs":[{"name":"","type":"bool","internalType":"bool"}],"stateMutability":"view"},{"type":"function","name":"owner","inputs":[],"outputs":[{"name":"","type":"address","internalType":"address"}],"stateMutability":"view"},{"type":"function","name":"presaleClosed","inputs":[],"outputs":[{"name":"","type":"bool","internalType":"bool"}],"stateMutability":"view"},{"type":"function","name":"remainingCapacity","inputs":[],"outputs":[{"name":"","type":"uint256","internalType":"uint256"}],"stateMutability":"view"},{"type":"function","name":"rescueTokens","inputs":[{"name":"token","type":"address","internalType":"address"},{"name":"to","type":"address","internalType":"address"},{"name":"amount","type":"uint256","internalType":"uint256"}],"outputs":[],"stateMutability":"nonpayable"},{"type":"function","name":"softCap","inputs":[],"outputs":[{"name":"","type":"uint256","internalType":"uint256"}],"stateMutability":"view"},{"type":"function","name":"softCapReachedAt","inputs":[],"outputs":[{"name":"","type":"uint256","internalType":"uint256"}],"stateMutability":"view"},{"type":"function","name":"startTime","inputs":[],"outputs":[{"name":"","type":"uint256","internalType":"uint256"}],"stateMutability":"view"},{"type":"function","name":"timeRemaining","inputs":[],"outputs":[{"name":"","type":"uint256","internalType":"uint256"}],"stateMutability":"view"},{"type":"function","name":"totalContributed","inputs":[{"name":"","type":"address","internalType":"address"}],"outputs":[{"name":"","type":"uint256","internalType":"uint256"}],"stateMutability":"view"},{"type":"function","name":"totalRaised","inputs":[],"outputs":[{"name":"","type":"uint256","internalType":"uint256"}],"stateMutability":"view"},{"type":"function","name":"vault","inputs":[],"outputs":[{"name":"","type":"address","internalType":"address payable"}],"stateMutability":"view"},{"type":"event","name":"Contributed","inputs":[{"name":"contributor","type":"address","indexed":true,"internalType":"address"},{"name":"amount","type":"uint256","indexed":false,"internalType":"uint256"},{"name":"totalContribution","type":"uint256","indexed":false,"internalType":"uint256"},{"name":"multiplierBps","type":"uint256","indexed":false,"internalType":"uint256"},{"name":"isOG","type":"bool","indexed":false,"internalType":"bool"},{"name":"position","type":"uint256","indexed":false,"internalType":"uint256"}],"anonymous":false},{"type":"event","name":"HardCapReached","inputs":[{"name":"timestamp","type":"uint256","indexed":false,"internalType":"uint256"},{"name":"totalRaised","type":"uint256","indexed":false,"internalType":"uint256"}],"anonymous":false},{"type":"event","name":"OGWhitelisted","inputs":[{"name":"wallet","type":"address","indexed":true,"internalType":"address"}],"anonymous":false},{"type":"event","name":"PartialFill","inputs":[{"name":"contributor","type":"address","indexed":true,"internalType":"address"},{"name":"accepted","type":"uint256","indexed":false,"internalType":"uint256"},{"name":"returned","type":"uint256","indexed":false,"internalType":"uint256"}],"anonymous":false},{"type":"event","name":"PresaleClosed","inputs":[{"name":"timestamp","type":"uint256","indexed":false,"internalType":"uint256"},{"name":"totalRaised","type":"uint256","indexed":false,"internalType":"uint256"},{"name":"numContributors","type":"uint256","indexed":false,"internalType":"uint256"}],"anonymous":false},{"type":"event","name":"SoftCapReached","inputs":[{"name":"timestamp","type":"uint256","indexed":false,"internalType":"uint256"},{"name":"totalRaised","type":"uint256","indexed":false,"internalType":"uint256"}],"anonymous":false},{"type":"event","name":"TokensRescued","inputs":[{"name":"token","type":"address","indexed":true,"internalType":"address"},{"name":"to","type":"address","indexed":true,"internalType":"address"},{"name":"amount","type":"uint256","indexed":false,"internalType":"uint256"}],"anonymous":false},{"type":"event","name":"VaultForwarded","inputs":[{"name":"amount","type":"uint256","indexed":false,"internalType":"uint256"}],"anonymous":false},{"type":"error","name":"AboveMaximum","inputs":[]},{"type":"error","name":"AlreadyClosed","inputs":[]},{"type":"error","name":"BelowMinimum","inputs":[]},{"type":"error","name":"NotStarted","inputs":[]},{"type":"error","name":"OnlyOwner","inputs":[]},{"type":"error","name":"PresaleNotActive","inputs":[]},{"type":"error","name":"RescueFailed","inputs":[]}],"bytecode":{"object":"0x61018060405234801562000011575f80fd5b5060405162001fe338038062001fe383398101604081905262000034916200018a565b336080526001600160a01b03821660a052674563918244f4000060c05267ad78ebc5ac62000060e052662386f26fc1000061010052670de0b6b3a76400006101205262069780610140526101608390525f5b81518110156200014257600160055f848481518110620000aa57620000aa62000277565b60200260200101516001600160a01b03166001600160a01b031681526020019081526020015f205f6101000a81548160ff021916908315150217905550818181518110620000fc57620000fc62000277565b60200260200101516001600160a01b03167fa8e424685464c3675091d941214db8b5b879573c5c9a521a99353a538eaa204260405160405180910390a260010162000086565b505050506200028b565b6001600160a01b038116811462000161575f80fd5b50565b634e487b7160e01b5f52604160045260245ffd5b805162000185816200014c565b919050565b5f805f606084860312156200019d575f80fd5b83519250602080850151620001b2816200014c565b60408601519093506001600160401b0380821115620001cf575f80fd5b818701915087601f830112620001e3575f80fd5b815181811115620001f857620001f862000164565b8060051b604051601f19603f8301168101818110858211171562000220576200022062000164565b60405291825284820192508381018501918a8311156200023e575f80fd5b938501935b828510156200026757620002578562000178565b8452938501939285019262000243565b8096505050505050509250925092565b634e487b7160e01b5f52603260045260245ffd5b60805160a05160c05160e05161010051610120516101405161016051611c7e620003655f395f81816103a001528181610441015281816106e60152610e1c01525f818161035b01528181610cde01526116cd01525f818161047401526107c101525f818161057a015261077101525f818161067a015281816108120152818161084c01528181610c17015281816115080152818161153701528181611704015261173501525f81816104da0152610ba401525f81816106c2015261096f01525f81816104a70152818161124b01526115660152611c7e5ff3fe6080604052600436106101ff575f3560e01c80638d3d657611610113578063c5c4744c1161009d578063e3cfef601161006d578063e3cfef6014610627578063f4b2afc51461063b578063fb86a40414610669578063fbaf0d551461069c578063fbfa77cf146106b1575f80fd5b8063c5c4744c146105b5578063c83271f5146105c9578063cea9d26f14610600578063d7bb99ba1461061f575f80fd5b8063a0f243b8116100e3578063a0f243b81461052a578063a78c7b0814610555578063aaffadf314610569578063abd2cc5f1461059c578063ad95de77146102b0575f80fd5b80638d3d6576146104635780638da5cb5b14610496578063906a26e0146104c95780639c3beac2146104fc575f80fd5b80633d62fb0511610194578063567627aa11610164578063567627aa146103c757806363cea450146103e957806366349e3f146103fd5780636fbaaa1e1461041c57806378e9792514610430575f80fd5b80633d62fb051461033557806345fe3db61461034a578063480a776c1461037d578063544736e614610392575f80fd5b8063249d39e9116101cf578063249d39e9146102b0578063253da8bd146102c557806337f3061d146102d95780633cb5d100146102fe575f80fd5b80630b5c7f79146102125780630ba2d8751461023957806321eff7fc1461025857806322f3e2d41461028c575f80fd5b3661020e5761020c6106e4565b005b5f80fd5b34801561021d575f80fd5b50610226610cd2565b6040519081526020015b60405180910390f35b348015610244575f80fd5b506102266102533660046118e3565b610d14565b348015610263575f80fd5b506102266102723660046118e3565b6001600160a01b03165f9081526004602052604090205490565b348015610297575f80fd5b506102a0610e19565b6040519015158152602001610230565b3480156102bb575f80fd5b5061022661271081565b3480156102d0575f80fd5b50600654610226565b3480156102e4575f80fd5b506102ed610e62565b60405161023095949392919061196e565b348015610309575f80fd5b5061031d610318366004611a0d565b611180565b6040516001600160a01b039091168152602001610230565b348015610340575f80fd5b50610226613a9881565b348015610355575f80fd5b506102267f000000000000000000000000000000000000000000000000000000000000000081565b348015610388575f80fd5b506102266103e881565b34801561039d575f80fd5b507f00000000000000000000000000000000000000000000000000000000000000004210156102a0565b3480156103d2575f80fd5b506103db6111a8565b604051610230929190611a46565b3480156103f4575f80fd5b5061020c61121c565b348015610408575f80fd5b5061031d610417366004611a0d565b6112ee565b348015610427575f80fd5b5061022661131c565b34801561043b575f80fd5b506102267f000000000000000000000000000000000000000000000000000000000000000081565b34801561046e575f80fd5b506102267f000000000000000000000000000000000000000000000000000000000000000081565b3480156104a1575f80fd5b5061031d7f000000000000000000000000000000000000000000000000000000000000000081565b3480156104d4575f80fd5b506102267f000000000000000000000000000000000000000000000000000000000000000081565b348015610507575f80fd5b5061051b6105163660046118e3565b611327565b60405161023093929190611a7f565b348015610535575f80fd5b506102266105443660046118e3565b60046020525f908152604090205481565b348015610560575f80fd5b50610226611505565b348015610574575f80fd5b506102267f000000000000000000000000000000000000000000000000000000000000000081565b3480156105a7575f80fd5b506001546102a09060ff1681565b3480156105c0575f80fd5b506102265f5481565b3480156105d4575f80fd5b506102a06105e33660046118e3565b6001600160a01b03165f9081526005602052604090205460ff1690565b34801561060b575f80fd5b5061020c61061a366004611ac1565b61155b565b61020c6106e4565b348015610632575f80fd5b50610226611683565b348015610646575f80fd5b506102a06106553660046118e3565b60056020525f908152604090205460ff1681565b348015610674575f80fd5b506102267f000000000000000000000000000000000000000000000000000000000000000081565b3480156106a7575f80fd5b5061022660025481565b3480156106bc575f80fd5b5061031d7f000000000000000000000000000000000000000000000000000000000000000081565b7f000000000000000000000000000000000000000000000000000000000000000042101561072557604051636f312cbd60e01b815260040160405180910390fd5b60015460ff161561074957604051633844da5760e21b815260040160405180910390fd5b6107516116bd565b1561076f57604051633844da5760e21b815260040160405180910390fd5b7f00000000000000000000000000000000000000000000000000000000000000003410156107b05760405163860b82a960e01b815260040160405180910390fd5b335f908152600460205260409020547f0000000000000000000000000000000000000000000000000000000000000000906107ec903490611b0e565b111561080b5760405163973f732360e01b815260040160405180910390fd5b5f3490505f7f0000000000000000000000000000000000000000000000000000000000000000825f5461083e9190611b0e565b111561087f575f54610870907f0000000000000000000000000000000000000000000000000000000000000000611b27565b915061087c8234611b27565b90505b335f9081526004602052604081205481036108d657600680546001810182555f919091527ff652222313e28459528d920b65115c16c04f3efc82aaedc97be59f3f377c0d3f0180546001600160a01b031916331790555b506006545f805433808352600360209081526040808520815180830183526001600160801b03808b1682528087168286019081528354600181018555938952858920925190518216600160801b02911617910155918452600490528220805491928692610944908490611b0e565b92505081905550835f8082825461095b9190611b0e565b90915550506040515f906001600160a01b037f0000000000000000000000000000000000000000000000000000000000000000169086908381818185875af1925050503d805f81146109c8576040519150601f19603f3d011682016040523d82523d5f602084013e6109cd565b606091505b5050905080610a1b5760405162461bcd60e51b815260206004820152601560248201527415985d5b1d081d1c985b9cd9995c8819985a5b1959605a1b60448201526064015b60405180910390fd5b6040518581527f2757d7b2210ca2de054c1b38766cf1b70216bfebdf637165165fb5094d196d239060200160405180910390a18315610b1d576040515f90339086908381818185875af1925050503d805f8114610a93576040519150601f19603f3d011682016040523d82523d5f602084013e610a98565b606091505b5050905080610ae05760405162461bcd60e51b8152602060048201526014602482015273115e18d95cdcc81c99599d5b990819985a5b195960621b6044820152606401610a12565b604080518781526020810187905233917f72390a3dd1fc2a8e7830114a0acff45da2e3eb7440b7c7c79dc9a1eda1d5ce3c910160405180910390a2505b5f610b2783611701565b335f8181526004602090815260408083205460058352928190205481518c815292830193909352810184905260ff9091161515606082015260808101879052919250907f22523db034a12c696615812d7270b1b0326faff07d8009af81ebc62c673867429060a00160405180910390a2600254158015610bc857507f00000000000000000000000000000000000000000000000000000000000000005f5410155b15610c15574260028190555f546040517fb43ca1b105f16771375b5b40a413666f837e4732dc6dd193f408c02736edac8592610c0c92908252602082015260400190565b60405180910390a15b7f00000000000000000000000000000000000000000000000000000000000000005f5410610cca576001805460ff1916811790555f546040805142815260208101929092527f328a2ffd6bbbab3bf0382571d9b19323a57d818bdb59d451f3b64d37f1dd177a910160405180910390a15f546006546040805142815260208101939093528201527f5da22814a78befc9c5eac3131b83ce43a0c84a2c80d129f969b4a70bb7f636fa9060600160405180910390a15b505050505050565b5f6002545f14610d0f577f0000000000000000000000000000000000000000000000000000000000000000600254610d0a9190611b0e565b905090565b505f90565b6001600160a01b0381165f908152600360205260408120815b8154811015610dc1575f610d6c838381548110610d4c57610d4c611b3a565b5f91825260209091200154600160801b90046001600160801b0316611701565b905061271081848481548110610d8457610d84611b3a565b5f91825260209091200154610da291906001600160801b0316611b4e565b610dac9190611b79565b610db69085611b0e565b935050600101610d2d565b506001600160a01b0383165f9081526005602052604090205460ff168015610de857505f82115b15610e1357612710610dfc6103e884611b4e565b610e069190611b79565b610e109083611b0e565b91505b50919050565b5f7f00000000000000000000000000000000000000000000000000000000000000004210158015610e4d575060015460ff16155b8015610d0a5750610e5c6116bd565b15905090565b60065460609081908190819081908067ffffffffffffffff811115610e8957610e89611b8c565b604051908082528060200260200182016040528015610eb2578160200160208202803683370190505b5095508067ffffffffffffffff811115610ece57610ece611b8c565b604051908082528060200260200182016040528015610ef7578160200160208202803683370190505b5094508067ffffffffffffffff811115610f1357610f13611b8c565b604051908082528060200260200182016040528015610f3c578160200160208202803683370190505b5093508067ffffffffffffffff811115610f5857610f58611b8c565b604051908082528060200260200182016040528015610f81578160200160208202803683370190505b5092508067ffffffffffffffff811115610f9d57610f9d611b8c565b604051908082528060200260200182016040528015610fc6578160200160208202803683370190505b5091505f5b81811015611177575f60068281548110610fe757610fe7611b3a565b905f5260205f20015f9054906101000a90046001600160a01b031690508088838151811061101757611017611b3a565b60200260200101906001600160a01b031690816001600160a01b03168152505060045f826001600160a01b03166001600160a01b031681526020019081526020015f205487838151811061106d5761106d611b3a565b60200260200101818152505061108281610d14565b86838151811061109457611094611b3a565b6020908102919091018101919091526001600160a01b0382165f90815260059091526040902054845160ff909116908590849081106110d5576110d5611b3a565b9115156020928302919091018201526001600160a01b0382165f90815260039091526040812090805b82548110156111305761111c838281548110610d4c57610d4c611b3a565b6111269083611b0e565b91506001016110fe565b50815461113f5761271061114b565b815461114b9082611b79565b87858151811061115d5761115d611b3a565b602002602001018181525050505050806001019050610fcb565b50509091929394565b6006818154811061118f575f80fd5b5f918252602090912001546001600160a01b0316905081565b5f60606111b55f54611701565b91505f6111c461271084611b79565b90505f6103e86111d661271086611ba0565b6111e09190611b79565b90506111eb826117c2565b6111f4826117c2565b604051602001611205929190611bb3565b604051602081830303815290604052925050509091565b60015460ff161561124057604051634d65bf2960e11b815260040160405180910390fd5b336001600160a01b037f0000000000000000000000000000000000000000000000000000000000000000161480159061127e575061127c6116bd565b155b1561129c57604051635fc483c560e01b815260040160405180910390fd5b6001805460ff1916811790555f546006546040805142815260208101939093528201527f5da22814a78befc9c5eac3131b83ce43a0c84a2c80d129f969b4a70bb7f636fa9060600160405180910390a1565b5f6006828154811061130257611302611b3a565b5f918252602090912001546001600160a01b031692915050565b5f610d0a5f54611701565b6001600160a01b0381165f908152600360205260409020805460609182918291908067ffffffffffffffff81111561136157611361611b8c565b60405190808252806020026020018201604052801561138a578160200160208202803683370190505b5094508067ffffffffffffffff8111156113a6576113a6611b8c565b6040519080825280602002602001820160405280156113cf578160200160208202803683370190505b5093508067ffffffffffffffff8111156113eb576113eb611b8c565b604051908082528060200260200182016040528015611414578160200160208202803683370190505b5092505f5b818110156114fb5782818154811061143357611433611b3a565b5f9182526020909120015486516001600160801b039091169087908390811061145e5761145e611b3a565b60200260200101818152505082818154811061147c5761147c611b3a565b905f5260205f20015f0160109054906101000a90046001600160801b03166001600160801b03168582815181106114b5576114b5611b3a565b6020026020010181815250506114d6838281548110610d4c57610d4c611b3a565b8482815181106114e8576114e8611b3a565b6020908102919091010152600101611419565b5050509193909250565b5f7f00000000000000000000000000000000000000000000000000000000000000005f541015610d0f575f54610d0a907f0000000000000000000000000000000000000000000000000000000000000000611b27565b336001600160a01b037f000000000000000000000000000000000000000000000000000000000000000016146115a457604051635fc483c560e01b815260040160405180910390fd5b60405163a9059cbb60e01b81526001600160a01b0383811660048301526024820183905284169063a9059cbb906044016020604051808303815f875af11580156115f0573d5f803e3d5ffd5b505050506040513d601f19601f820116820180604052508101906116149190611bfc565b6116315760405163b8eaf7a160e01b815260040160405180910390fd5b816001600160a01b0316836001600160a01b03167f77023e19c7343ad491fd706c36335ca0e738340a91f29b1fd81e2673d44896c48360405161167691815260200190565b60405180910390a3505050565b5f8061168d610cd2565b9050805f0361169e575f1991505090565b804210156116b5576116b04282611b27565b6116b7565b5f5b91505090565b5f6002545f14158015610d0a57507f00000000000000000000000000000000000000000000000000000000000000006002546116f99190611b0e565b421015905090565b5f7f000000000000000000000000000000000000000000000000000000000000000082106117325750612710919050565b5f7f000000000000000000000000000000000000000000000000000000000000000061176061271085611b4e565b61176a9190611b79565b90505f61271061177a8380611b4e565b6117849190611b79565b90505f6127108261179782613a98611b27565b6117a19190611b4e565b6117ab9190611b79565b90506117b981613a98611b27565b95945050505050565b6060815f036117e85750506040805180820190915260018152600360fc1b602082015290565b815f5b811561181157806117fb81611c1b565b915061180a9050600a83611b79565b91506117eb565b5f8167ffffffffffffffff81111561182b5761182b611b8c565b6040519080825280601f01601f191660200182016040528015611855576020820181803683370190505b5090505b84156118c0578161186981611c33565b92506118789050600a86611ba0565b611883906030611b0e565b60f81b81838151811061189857611898611b3a565b60200101906001600160f81b03191690815f1a9053506118b9600a86611b79565b9450611859565b949350505050565b80356001600160a01b03811681146118de575f80fd5b919050565b5f602082840312156118f3575f80fd5b6118fc826118c8565b9392505050565b5f815180845260208085019450602084015f5b8381101561193257815187529582019590820190600101611916565b509495945050505050565b5f815180845260208085019450602084015f5b83811015611932578151151587529582019590820190600101611950565b60a080825286519082018190525f9060209060c0840190828a01845b828110156119af5781516001600160a01b03168452928401929084019060010161198a565b50505083810360208501526119c48189611903565b91505082810360408401526119d98187611903565b905082810360608401526119ed8186611903565b90508281036080840152611a01818561193d565b98975050505050505050565b5f60208284031215611a1d575f80fd5b5035919050565b5f5b83811015611a3e578181015183820152602001611a26565b50505f910152565b828152604060208201525f8251806040840152611a6a816060850160208701611a24565b601f01601f1916919091016060019392505050565b606081525f611a916060830186611903565b8281036020840152611aa38186611903565b90508281036040840152611ab78185611903565b9695505050505050565b5f805f60608486031215611ad3575f80fd5b611adc846118c8565b9250611aea602085016118c8565b9150604084013590509250925092565b634e487b7160e01b5f52601160045260245ffd5b80820180821115611b2157611b21611afa565b92915050565b81810381811115611b2157611b21611afa565b634e487b7160e01b5f52603260045260245ffd5b8082028115828204841417611b2157611b21611afa565b634e487b7160e01b5f52601260045260245ffd5b5f82611b8757611b87611b65565b500490565b634e487b7160e01b5f52604160045260245ffd5b5f82611bae57611bae611b65565b500690565b5f8351611bc4818460208801611a24565b601760f91b9083019081528351611be2816001840160208801611a24565b600f60fb1b60019290910191820152600201949350505050565b5f60208284031215611c0c575f80fd5b815180151581146118fc575f80fd5b5f60018201611c2c57611c2c611afa565b5060010190565b5f81611c4157611c41611afa565b505f19019056fea26469706673582212207fee0eab94e0f47f07e6d1313732d53affc1678ea8337465cc18c50f5905f2f764736f6c63430008180033","linkReferences":{}},"methodIdentifiers":{"BPS()":"249d39e9","MAX_MULT()":"3d62fb05","MIN_MULT()":"ad95de77","OG_BONUS_BPS()":"480a776c","closePresale()":"63cea450","contribute()":"d7bb99ba","contributors(uint256)":"3cb5d100","currentMultiplier()":"6fbaaa1e","currentPriceInfo()":"567627aa","getAllContributions()":"37f3061d","getAllocationWeight(address)":"0ba2d875","getContribution(address)":"21eff7fc","getContributionDetails(address)":"9c3beac2","getContributorAt(uint256)":"66349e3f","getContributorCount()":"253da8bd","hardCap()":"fb86a404","hardCapDeadline()":"0b5c7f79","hardCapDuration()":"45fe3db6","isActive()":"22f3e2d4","isOG(address)":"c83271f5","isStarted()":"544736e6","maxContribution()":"8d3d6576","minContribution()":"aaffadf3","ogWhitelist(address)":"f4b2afc5","owner()":"8da5cb5b","presaleClosed()":"abd2cc5f","remainingCapacity()":"a78c7b08","rescueTokens(address,address,uint256)":"cea9d26f","softCap()":"906a26e0","softCapReachedAt()":"fbaf0d55","startTime()":"78e97925","timeRemaining()":"e3cfef60","totalContributed(address)":"a0f243b8","totalRaised()":"c5c4744c","vault()":"fbfa77cf"},"id":0}