{"abi":[{"type":"constructor","inputs":[{"name":"_vault","type":"address","internalType":"address payable"},{"name":"_ogWallets","type":"address[]","internalType":"address[]"}],"stateMutability":"nonpayable"},{"type":"receive","stateMutability":"payable"},{"type":"function","name":"closePresale","inputs":[],"outputs":[],"stateMutability":"nonpayable"},{"type":"function","name":"contribute","inputs":[],"outputs":[],"stateMutability":"payable"},{"type":"function","name":"contributions","inputs":[{"name":"","type":"address","internalType":"address"}],"outputs":[{"name":"","type":"uint256","internalType":"uint256"}],"stateMutability":"view"},{"type":"function","name":"contributors","inputs":[{"name":"","type":"uint256","internalType":"uint256"}],"outputs":[{"name":"","type":"address","internalType":"address"}],"stateMutability":"view"},{"type":"function","name":"getAllContributions","inputs":[],"outputs":[{"name":"wallets","type":"address[]","internalType":"address[]"},{"name":"amounts","type":"uint256[]","internalType":"uint256[]"},{"name":"weights","type":"uint256[]","internalType":"uint256[]"},{"name":"isOGList","type":"bool[]","internalType":"bool[]"}],"stateMutability":"view"},{"type":"function","name":"getAllocationWeight","inputs":[{"name":"wallet","type":"address","internalType":"address"}],"outputs":[{"name":"","type":"uint256","internalType":"uint256"}],"stateMutability":"view"},{"type":"function","name":"getContribution","inputs":[{"name":"wallet","type":"address","internalType":"address"}],"outputs":[{"name":"","type":"uint256","internalType":"uint256"}],"stateMutability":"view"},{"type":"function","name":"getContributorAt","inputs":[{"name":"index","type":"uint256","internalType":"uint256"}],"outputs":[{"name":"","type":"address","internalType":"address"}],"stateMutability":"view"},{"type":"function","name":"getContributorCount","inputs":[],"outputs":[{"name":"","type":"uint256","internalType":"uint256"}],"stateMutability":"view"},{"type":"function","name":"hardCap","inputs":[],"outputs":[{"name":"","type":"uint256","internalType":"uint256"}],"stateMutability":"view"},{"type":"function","name":"hardCapDeadline","inputs":[],"outputs":[{"name":"","type":"uint256","internalType":"uint256"}],"stateMutability":"view"},{"type":"function","name":"hardCapDuration","inputs":[],"outputs":[{"name":"","type":"uint256","internalType":"uint256"}],"stateMutability":"view"},{"type":"function","name":"isActive","inputs":[],"outputs":[{"name":"","type":"bool","internalType":"bool"}],"stateMutability":"view"},{"type":"function","name":"isOG","inputs":[{"name":"wallet","type":"address","internalType":"address"}],"outputs":[{"name":"","type":"bool","internalType":"bool"}],"stateMutability":"view"},{"type":"function","name":"maxContribution","inputs":[],"outputs":[{"name":"","type":"uint256","internalType":"uint256"}],"stateMutability":"view"},{"type":"function","name":"minContribution","inputs":[],"outputs":[{"name":"","type":"uint256","internalType":"uint256"}],"stateMutability":"view"},{"type":"function","name":"ogBonusBps","inputs":[],"outputs":[{"name":"","type":"uint256","internalType":"uint256"}],"stateMutability":"view"},{"type":"function","name":"ogWhitelist","inputs":[{"name":"","type":"address","internalType":"address"}],"outputs":[{"name":"","type":"bool","internalType":"bool"}],"stateMutability":"view"},{"type":"function","name":"owner","inputs":[],"outputs":[{"name":"","type":"address","internalType":"address"}],"stateMutability":"view"},{"type":"function","name":"presaleClosed","inputs":[],"outputs":[{"name":"","type":"bool","internalType":"bool"}],"stateMutability":"view"},{"type":"function","name":"remainingCapacity","inputs":[],"outputs":[{"name":"","type":"uint256","internalType":"uint256"}],"stateMutability":"view"},{"type":"function","name":"rescueTokens","inputs":[{"name":"token","type":"address","internalType":"address"},{"name":"to","type":"address","internalType":"address"},{"name":"amount","type":"uint256","internalType":"uint256"}],"outputs":[],"stateMutability":"nonpayable"},{"type":"function","name":"softCap","inputs":[],"outputs":[{"name":"","type":"uint256","internalType":"uint256"}],"stateMutability":"view"},{"type":"function","name":"softCapReachedAt","inputs":[],"outputs":[{"name":"","type":"uint256","internalType":"uint256"}],"stateMutability":"view"},{"type":"function","name":"timeRemaining","inputs":[],"outputs":[{"name":"","type":"uint256","internalType":"uint256"}],"stateMutability":"view"},{"type":"function","name":"totalRaised","inputs":[],"outputs":[{"name":"","type":"uint256","internalType":"uint256"}],"stateMutability":"view"},{"type":"function","name":"vault","inputs":[],"outputs":[{"name":"","type":"address","internalType":"address payable"}],"stateMutability":"view"},{"type":"event","name":"Contributed","inputs":[{"name":"contributor","type":"address","indexed":true,"internalType":"address"},{"name":"amount","type":"uint256","indexed":false,"internalType":"uint256"},{"name":"totalContribution","type":"uint256","indexed":false,"internalType":"uint256"},{"name":"isOG","type":"bool","indexed":false,"internalType":"bool"}],"anonymous":false},{"type":"event","name":"HardCapReached","inputs":[{"name":"timestamp","type":"uint256","indexed":false,"internalType":"uint256"},{"name":"totalRaised","type":"uint256","indexed":false,"internalType":"uint256"}],"anonymous":false},{"type":"event","name":"OGWhitelisted","inputs":[{"name":"wallet","type":"address","indexed":true,"internalType":"address"}],"anonymous":false},{"type":"event","name":"PartialFill","inputs":[{"name":"contributor","type":"address","indexed":true,"internalType":"address"},{"name":"accepted","type":"uint256","indexed":false,"internalType":"uint256"},{"name":"returned","type":"uint256","indexed":false,"internalType":"uint256"}],"anonymous":false},{"type":"event","name":"PresaleClosed","inputs":[{"name":"timestamp","type":"uint256","indexed":false,"internalType":"uint256"},{"name":"totalRaised","type":"uint256","indexed":false,"internalType":"uint256"},{"name":"numContributors","type":"uint256","indexed":false,"internalType":"uint256"}],"anonymous":false},{"type":"event","name":"SoftCapReached","inputs":[{"name":"timestamp","type":"uint256","indexed":false,"internalType":"uint256"},{"name":"totalRaised","type":"uint256","indexed":false,"internalType":"uint256"}],"anonymous":false},{"type":"event","name":"TokensRescued","inputs":[{"name":"token","type":"address","indexed":true,"internalType":"address"},{"name":"to","type":"address","indexed":true,"internalType":"address"},{"name":"amount","type":"uint256","indexed":false,"internalType":"uint256"}],"anonymous":false},{"type":"event","name":"VaultForwarded","inputs":[{"name":"amount","type":"uint256","indexed":false,"internalType":"uint256"}],"anonymous":false},{"type":"error","name":"AboveMaximum","inputs":[]},{"type":"error","name":"AlreadyClosed","inputs":[]},{"type":"error","name":"BelowMinimum","inputs":[]},{"type":"error","name":"OnlyOwner","inputs":[]},{"type":"error","name":"PresaleNotActive","inputs":[]},{"type":"error","name":"RescueFailed","inputs":[]}],"bytecode":{"object":"0x61018060405234801562000011575f80fd5b50604051620017403803806200174083398101604081905262000034916200018a565b336080526001600160a01b03821660a052674563918244f4000060c05267ad78ebc5ac62000060e052662386f26fc1000061010052670de0b6b3a76400006101205262069780610140526103e8610160525f5b81518110156200014357600160045f848481518110620000ab57620000ab62000270565b60200260200101516001600160a01b03166001600160a01b031681526020019081526020015f205f6101000a81548160ff021916908315150217905550818181518110620000fd57620000fd62000270565b60200260200101516001600160a01b03167fa8e424685464c3675091d941214db8b5b879573c5c9a521a99353a538eaa204260405160405180910390a260010162000087565b50505062000284565b6001600160a01b038116811462000161575f80fd5b50565b634e487b7160e01b5f52604160045260245ffd5b805162000185816200014c565b919050565b5f80604083850312156200019c575f80fd5b8251620001a9816200014c565b602084810151919350906001600160401b0380821115620001c8575f80fd5b818601915086601f830112620001dc575f80fd5b815181811115620001f157620001f162000164565b8060051b604051601f19603f8301168101818110858211171562000219576200021962000164565b60405291825284820192508381018501918983111562000237575f80fd5b938501935b828510156200026057620002508562000178565b845293850193928501926200023c565b8096505050505050509250929050565b634e487b7160e01b5f52603260045260245ffd5b60805160a05160c05160e051610100516101205161014051610160516113fe620003425f395f81816102c90152610b6d01525f818161032701528181610afe015261117101525f818161038d015261064001525f818161043a01526105f001525f818161053a01528181610691015281816106cb01528181610a3401528181610fa10152610fd401525f81816103f301526109c101525f8181610582015261079e01525f81816103c001528181610ecd015261100301526113fe5ff3fe608060405260043610610198575f3560e01c80638da5cb5b116100e7578063cea9d26f11610087578063f4b2afc511610062578063f4b2afc5146104fb578063fb86a40414610529578063fbaf0d551461055c578063fbfa77cf14610571575f80fd5b8063cea9d26f146104c0578063d7bb99ba146104df578063e3cfef60146104e7575f80fd5b8063aaffadf3116100c2578063aaffadf314610429578063abd2cc5f1461045c578063c5c4744c14610475578063c83271f514610489575f80fd5b80638da5cb5b146103af578063906a26e0146103e2578063a78c7b0814610415575f80fd5b80633cb5d1001161015257806345fe3db61161012d57806345fe3db61461031657806363cea4501461034957806366349e3f1461035d5780638d3d65761461037c575f80fd5b80633cb5d100146102815780633ededdca146102b857806342e94c90146102eb575f80fd5b80630b5c7f79146101ab5780630ba2d875146101d257806321eff7fc146101f157806322f3e2d414610225578063253da8bd1461024957806337f3061d1461025d575f80fd5b366101a7576101a56105a4565b005b5f80fd5b3480156101b6575f80fd5b506101bf610aed565b6040519081526020015b60405180910390f35b3480156101dd575f80fd5b506101bf6101ec3660046111c0565b610b2f565b3480156101fc575f80fd5b506101bf61020b3660046111c0565b6001600160a01b03165f9081526003602052604090205490565b348015610230575f80fd5b50610239610bb3565b60405190151581526020016101c9565b348015610254575f80fd5b506005546101bf565b348015610268575f80fd5b50610271610bd1565b6040516101c99493929190611213565b34801561028c575f80fd5b506102a061029b3660046112c1565b610e76565b6040516001600160a01b0390911681526020016101c9565b3480156102c3575f80fd5b506101bf7f000000000000000000000000000000000000000000000000000000000000000081565b3480156102f6575f80fd5b506101bf6103053660046111c0565b60036020525f908152604090205481565b348015610321575f80fd5b506101bf7f000000000000000000000000000000000000000000000000000000000000000081565b348015610354575f80fd5b506101a5610e9e565b348015610368575f80fd5b506102a06103773660046112c1565b610f70565b348015610387575f80fd5b506101bf7f000000000000000000000000000000000000000000000000000000000000000081565b3480156103ba575f80fd5b506102a07f000000000000000000000000000000000000000000000000000000000000000081565b3480156103ed575f80fd5b506101bf7f000000000000000000000000000000000000000000000000000000000000000081565b348015610420575f80fd5b506101bf610f9e565b348015610434575f80fd5b506101bf7f000000000000000000000000000000000000000000000000000000000000000081565b348015610467575f80fd5b506001546102399060ff1681565b348015610480575f80fd5b506101bf5f5481565b348015610494575f80fd5b506102396104a33660046111c0565b6001600160a01b03165f9081526004602052604090205460ff1690565b3480156104cb575f80fd5b506101a56104da3660046112d8565b610ff8565b6101a56105a4565b3480156104f2575f80fd5b506101bf611127565b348015610506575f80fd5b506102396105153660046111c0565b60046020525f908152604090205460ff1681565b348015610534575f80fd5b506101bf7f000000000000000000000000000000000000000000000000000000000000000081565b348015610567575f80fd5b506101bf60025481565b34801561057c575f80fd5b506102a07f000000000000000000000000000000000000000000000000000000000000000081565b60015460ff16156105c857604051633844da5760e21b815260040160405180910390fd5b6105d0611160565b156105ee57604051633844da5760e21b815260040160405180910390fd5b7f000000000000000000000000000000000000000000000000000000000000000034101561062f5760405163860b82a960e01b815260040160405180910390fd5b335f908152600360205260409020547f00000000000000000000000000000000000000000000000000000000000000009061066b903490611325565b111561068a5760405163973f732360e01b815260040160405180910390fd5b5f3490505f7f0000000000000000000000000000000000000000000000000000000000000000825f546106bd9190611325565b11156106fe575f546106ef907f0000000000000000000000000000000000000000000000000000000000000000611338565b91506106fb8234611338565b90505b335f90815260036020526040812054900361075557600580546001810182555f919091527f036b6384b5eca791c62761152d0c79bb0604c104a5fb6f4eb0703f3154bb3db00180546001600160a01b031916331790555b335f9081526003602052604081208054849290610773908490611325565b92505081905550815f8082825461078a9190611325565b90915550506040515f906001600160a01b037f0000000000000000000000000000000000000000000000000000000000000000169084908381818185875af1925050503d805f81146107f7576040519150601f19603f3d011682016040523d82523d5f602084013e6107fc565b606091505b505090508061084a5760405162461bcd60e51b815260206004820152601560248201527415985d5b1d081d1c985b9cd9995c8819985a5b1959605a1b60448201526064015b60405180910390fd5b6040518381527f2757d7b2210ca2de054c1b38766cf1b70216bfebdf637165165fb5094d196d239060200160405180910390a18115610955576040515f90339084908381818185875af1925050503d805f81146108c2576040519150601f19603f3d011682016040523d82523d5f602084013e6108c7565b606091505b50509050806109185760405162461bcd60e51b815260206004820152601760248201527f526566756e64206f6620657863657373206661696c65640000000000000000006044820152606401610841565b604080518581526020810185905233917f72390a3dd1fc2a8e7830114a0acff45da2e3eb7440b7c7c79dc9a1eda1d5ce3c910160405180910390a2505b335f8181526004602090815260408083205460038352928190205481518881529283015260ff9092168015158284015291519192917fa3cf76d32602a2a687abed22e487ac1357d386fecf9be68fe771f9c97606f3c39181900360600190a26002541580156109e557507f00000000000000000000000000000000000000000000000000000000000000005f5410155b15610a32574260028190555f546040517fb43ca1b105f16771375b5b40a413666f837e4732dc6dd193f408c02736edac8592610a2992908252602082015260400190565b60405180910390a15b7f00000000000000000000000000000000000000000000000000000000000000005f5410610ae7576001805460ff1916811790555f546040805142815260208101929092527f328a2ffd6bbbab3bf0382571d9b19323a57d818bdb59d451f3b64d37f1dd177a910160405180910390a15f546005546040805142815260208101939093528201527f5da22814a78befc9c5eac3131b83ce43a0c84a2c80d129f969b4a70bb7f636fa9060600160405180910390a15b50505050565b5f6002545f03610afc57505f90565b7f0000000000000000000000000000000000000000000000000000000000000000600254610b2a9190611325565b905090565b6001600160a01b0381165f90815260036020908152604080832054600490925282205460ff168015610b6057505f81115b15610bad57612710610b927f00000000000000000000000000000000000000000000000000000000000000008361134b565b610b9c9190611362565b610ba69082611325565b9392505050565b92915050565b6001545f9060ff16158015610b2a5750610bcb611160565b15905090565b6005546060908190819081908067ffffffffffffffff811115610bf657610bf6611381565b604051908082528060200260200182016040528015610c1f578160200160208202803683370190505b5094508067ffffffffffffffff811115610c3b57610c3b611381565b604051908082528060200260200182016040528015610c64578160200160208202803683370190505b5093508067ffffffffffffffff811115610c8057610c80611381565b604051908082528060200260200182016040528015610ca9578160200160208202803683370190505b5092508067ffffffffffffffff811115610cc557610cc5611381565b604051908082528060200260200182016040528015610cee578160200160208202803683370190505b5091505f5b81811015610e6e5760058181548110610d0e57610d0e611395565b905f5260205f20015f9054906101000a90046001600160a01b0316868281518110610d3b57610d3b611395565b60200260200101906001600160a01b031690816001600160a01b03168152505060035f60058381548110610d7157610d71611395565b5f9182526020808320909101546001600160a01b031683528201929092526040019020548551869083908110610da957610da9611395565b602002602001018181525050610de460058281548110610dcb57610dcb611395565b5f918252602090912001546001600160a01b0316610b2f565b848281518110610df657610df6611395565b60200260200101818152505060045f60058381548110610e1857610e18611395565b5f9182526020808320909101546001600160a01b03168352820192909252604001902054835160ff90911690849083908110610e5657610e56611395565b91151560209283029190910190910152600101610cf3565b505090919293565b60058181548110610e85575f80fd5b5f918252602090912001546001600160a01b0316905081565b60015460ff1615610ec257604051634d65bf2960e11b815260040160405180910390fd5b336001600160a01b037f00000000000000000000000000000000000000000000000000000000000000001614801590610f005750610efe611160565b155b15610f1e57604051635fc483c560e01b815260040160405180910390fd5b6001805460ff1916811790555f546005546040805142815260208101939093528201527f5da22814a78befc9c5eac3131b83ce43a0c84a2c80d129f969b4a70bb7f636fa9060600160405180910390a1565b5f60058281548110610f8457610f84611395565b5f918252602090912001546001600160a01b031692915050565b5f7f00000000000000000000000000000000000000000000000000000000000000005f5410610fcc57505f90565b5f54610b2a907f0000000000000000000000000000000000000000000000000000000000000000611338565b336001600160a01b037f0000000000000000000000000000000000000000000000000000000000000000161461104157604051635fc483c560e01b815260040160405180910390fd5b60405163a9059cbb60e01b81526001600160a01b038381166004830152602482018390525f919085169063a9059cbb906044016020604051808303815f875af1158015611090573d5f803e3d5ffd5b505050506040513d601f19601f820116820180604052508101906110b491906113a9565b9050806110d45760405163b8eaf7a160e01b815260040160405180910390fd5b826001600160a01b0316846001600160a01b03167f77023e19c7343ad491fd706c36335ca0e738340a91f29b1fd81e2673d44896c48460405161111991815260200190565b60405180910390a350505050565b5f80611131610aed565b9050805f03611142575f1991505090565b804210611150575f91505090565b61115a4282611338565b91505090565b5f6002545f0361116f57505f90565b7f000000000000000000000000000000000000000000000000000000000000000060025461119d9190611325565b421015905090565b80356001600160a01b03811681146111bb575f80fd5b919050565b5f602082840312156111d0575f80fd5b610ba6826111a5565b5f815180845260208085019450602084015f5b83811015611208578151875295820195908201906001016111ec565b509495945050505050565b608080825285519082018190525f9060209060a0840190828901845b828110156112545781516001600160a01b03168452928401929084019060010161122f565b5050508381038285015261126881886111d9565b9050838103604085015261127c81876111d9565b848103606086015285518082528387019250908301905f5b818110156112b2578351151583529284019291840191600101611294565b50909998505050505050505050565b5f602082840312156112d1575f80fd5b5035919050565b5f805f606084860312156112ea575f80fd5b6112f3846111a5565b9250611301602085016111a5565b9150604084013590509250925092565b634e487b7160e01b5f52601160045260245ffd5b80820180821115610bad57610bad611311565b81810381811115610bad57610bad611311565b8082028115828204841417610bad57610bad611311565b5f8261137c57634e487b7160e01b5f52601260045260245ffd5b500490565b634e487b7160e01b5f52604160045260245ffd5b634e487b7160e01b5f52603260045260245ffd5b5f602082840312156113b9575f80fd5b81518015158114610ba6575f80fdfea2646970667358221220d01f670a19b586b55a4166baf366b860be13de2f0784f8a2b0a1120fa24133aa64736f6c63430008180033","linkReferences":{}},"methodIdentifiers":{"closePresale()":"63cea450","contribute()":"d7bb99ba","contributions(address)":"42e94c90","contributors(uint256)":"3cb5d100","getAllContributions()":"37f3061d","getAllocationWeight(address)":"0ba2d875","getContribution(address)":"21eff7fc","getContributorAt(uint256)":"66349e3f","getContributorCount()":"253da8bd","hardCap()":"fb86a404","hardCapDeadline()":"0b5c7f79","hardCapDuration()":"45fe3db6","isActive()":"22f3e2d4","isOG(address)":"c83271f5","maxContribution()":"8d3d6576","minContribution()":"aaffadf3","ogBonusBps()":"3ededdca","ogWhitelist(address)":"f4b2afc5","owner()":"8da5cb5b","presaleClosed()":"abd2cc5f","remainingCapacity()":"a78c7b08","rescueTokens(address,address,uint256)":"cea9d26f","softCap()":"906a26e0","softCapReachedAt()":"fbaf0d55","timeRemaining()":"e3cfef60","totalRaised()":"c5c4744c","vault()":"fbfa77cf"},"id":19}