{"abi":[{"type":"constructor","inputs":[{"name":"_vault","type":"address","internalType":"address payable"},{"name":"_ogWallets","type":"address[]","internalType":"address[]"}],"stateMutability":"nonpayable"},{"type":"receive","stateMutability":"payable"},{"type":"function","name":"closePresale","inputs":[],"outputs":[],"stateMutability":"nonpayable"},{"type":"function","name":"contribute","inputs":[],"outputs":[],"stateMutability":"payable"},{"type":"function","name":"contributions","inputs":[{"name":"","type":"address","internalType":"address"}],"outputs":[{"name":"","type":"uint256","internalType":"uint256"}],"stateMutability":"view"},{"type":"function","name":"contributors","inputs":[{"name":"","type":"uint256","internalType":"uint256"}],"outputs":[{"name":"","type":"address","internalType":"address"}],"stateMutability":"view"},{"type":"function","name":"getAllContributions","inputs":[],"outputs":[{"name":"wallets","type":"address[]","internalType":"address[]"},{"name":"amounts","type":"uint256[]","internalType":"uint256[]"},{"name":"weights","type":"uint256[]","internalType":"uint256[]"},{"name":"isOGList","type":"bool[]","internalType":"bool[]"}],"stateMutability":"view"},{"type":"function","name":"getAllocationWeight","inputs":[{"name":"wallet","type":"address","internalType":"address"}],"outputs":[{"name":"","type":"uint256","internalType":"uint256"}],"stateMutability":"view"},{"type":"function","name":"getContribution","inputs":[{"name":"wallet","type":"address","internalType":"address"}],"outputs":[{"name":"","type":"uint256","internalType":"uint256"}],"stateMutability":"view"},{"type":"function","name":"getContributorAt","inputs":[{"name":"index","type":"uint256","internalType":"uint256"}],"outputs":[{"name":"","type":"address","internalType":"address"}],"stateMutability":"view"},{"type":"function","name":"getContributorCount","inputs":[],"outputs":[{"name":"","type":"uint256","internalType":"uint256"}],"stateMutability":"view"},{"type":"function","name":"hardCap","inputs":[],"outputs":[{"name":"","type":"uint256","internalType":"uint256"}],"stateMutability":"view"},{"type":"function","name":"hardCapDeadline","inputs":[],"outputs":[{"name":"","type":"uint256","internalType":"uint256"}],"stateMutability":"view"},{"type":"function","name":"hardCapDuration","inputs":[],"outputs":[{"name":"","type":"uint256","internalType":"uint256"}],"stateMutability":"view"},{"type":"function","name":"isActive","inputs":[],"outputs":[{"name":"","type":"bool","internalType":"bool"}],"stateMutability":"view"},{"type":"function","name":"isOG","inputs":[{"name":"wallet","type":"address","internalType":"address"}],"outputs":[{"name":"","type":"bool","internalType":"bool"}],"stateMutability":"view"},{"type":"function","name":"maxContribution","inputs":[],"outputs":[{"name":"","type":"uint256","internalType":"uint256"}],"stateMutability":"view"},{"type":"function","name":"minContribution","inputs":[],"outputs":[{"name":"","type":"uint256","internalType":"uint256"}],"stateMutability":"view"},{"type":"function","name":"ogBonusBps","inputs":[],"outputs":[{"name":"","type":"uint256","internalType":"uint256"}],"stateMutability":"view"},{"type":"function","name":"ogWhitelist","inputs":[{"name":"","type":"address","internalType":"address"}],"outputs":[{"name":"","type":"bool","internalType":"bool"}],"stateMutability":"view"},{"type":"function","name":"owner","inputs":[],"outputs":[{"name":"","type":"address","internalType":"address"}],"stateMutability":"view"},{"type":"function","name":"presaleClosed","inputs":[],"outputs":[{"name":"","type":"bool","internalType":"bool"}],"stateMutability":"view"},{"type":"function","name":"softCap","inputs":[],"outputs":[{"name":"","type":"uint256","internalType":"uint256"}],"stateMutability":"view"},{"type":"function","name":"softCapReachedAt","inputs":[],"outputs":[{"name":"","type":"uint256","internalType":"uint256"}],"stateMutability":"view"},{"type":"function","name":"timeRemaining","inputs":[],"outputs":[{"name":"","type":"uint256","internalType":"uint256"}],"stateMutability":"view"},{"type":"function","name":"totalRaised","inputs":[],"outputs":[{"name":"","type":"uint256","internalType":"uint256"}],"stateMutability":"view"},{"type":"function","name":"vault","inputs":[],"outputs":[{"name":"","type":"address","internalType":"address payable"}],"stateMutability":"view"},{"type":"event","name":"Contributed","inputs":[{"name":"contributor","type":"address","indexed":true,"internalType":"address"},{"name":"amount","type":"uint256","indexed":false,"internalType":"uint256"},{"name":"totalContribution","type":"uint256","indexed":false,"internalType":"uint256"},{"name":"isOG","type":"bool","indexed":false,"internalType":"bool"}],"anonymous":false},{"type":"event","name":"HardCapReached","inputs":[{"name":"timestamp","type":"uint256","indexed":false,"internalType":"uint256"},{"name":"totalRaised","type":"uint256","indexed":false,"internalType":"uint256"}],"anonymous":false},{"type":"event","name":"OGWhitelisted","inputs":[{"name":"wallet","type":"address","indexed":true,"internalType":"address"}],"anonymous":false},{"type":"event","name":"PresaleClosed","inputs":[{"name":"timestamp","type":"uint256","indexed":false,"internalType":"uint256"},{"name":"totalRaised","type":"uint256","indexed":false,"internalType":"uint256"},{"name":"numContributors","type":"uint256","indexed":false,"internalType":"uint256"}],"anonymous":false},{"type":"event","name":"SoftCapReached","inputs":[{"name":"timestamp","type":"uint256","indexed":false,"internalType":"uint256"},{"name":"totalRaised","type":"uint256","indexed":false,"internalType":"uint256"}],"anonymous":false},{"type":"event","name":"VaultForwarded","inputs":[{"name":"amount","type":"uint256","indexed":false,"internalType":"uint256"}],"anonymous":false},{"type":"error","name":"AboveMaximum","inputs":[]},{"type":"error","name":"AlreadyClosed","inputs":[]},{"type":"error","name":"BelowMinimum","inputs":[]},{"type":"error","name":"HardCapExceeded","inputs":[]},{"type":"error","name":"OnlyOwner","inputs":[]},{"type":"error","name":"PresaleNotActive","inputs":[]}],"bytecode":{"object":"0x61018060405234801562000011575f80fd5b50604051620013cc380380620013cc83398101604081905262000034916200018a565b336080526001600160a01b03821660a052674563918244f4000060c05267ad78ebc5ac62000060e052662386f26fc1000061010052670de0b6b3a76400006101205262069780610140526103e8610160525f5b81518110156200014357600160045f848481518110620000ab57620000ab62000270565b60200260200101516001600160a01b03166001600160a01b031681526020019081526020015f205f6101000a81548160ff021916908315150217905550818181518110620000fd57620000fd62000270565b60200260200101516001600160a01b03167fa8e424685464c3675091d941214db8b5b879573c5c9a521a99353a538eaa204260405160405180910390a260010162000087565b50505062000284565b6001600160a01b038116811462000161575f80fd5b50565b634e487b7160e01b5f52604160045260245ffd5b805162000185816200014c565b919050565b5f80604083850312156200019c575f80fd5b8251620001a9816200014c565b602084810151919350906001600160401b0380821115620001c8575f80fd5b818601915086601f830112620001dc575f80fd5b815181811115620001f157620001f162000164565b8060051b604051601f19603f8301168101818110858211171562000219576200021962000164565b60405291825284820192508381018501918983111562000237575f80fd5b938501935b828510156200026057620002508562000178565b845293850193928501926200023c565b8096505050505050509250929050565b634e487b7160e01b5f52603260045260245ffd5b60805160a05160c05160e051610100516101205161014051610160516110a6620003265f395f81816102950152610a0401525f81816102f3015281816109950152610e7f01525f818161035901526105d901525f81816103f2015261058901525f81816104d30152818161062501526108cd01525f81816103bf015261085a01525f818161051b015261071001525f818161038c0152610d6401526110a65ff3fe608060405260043610610164575f3560e01c80638d3d6576116100cd578063c83271f511610087578063f4b2afc511610062578063f4b2afc514610494578063fb86a404146104c2578063fbaf0d55146104f5578063fbfa77cf1461050a575f80fd5b8063c83271f514610441578063d7bb99ba14610478578063e3cfef6014610480575f80fd5b80638d3d6576146103485780638da5cb5b1461037b578063906a26e0146103ae578063aaffadf3146103e1578063abd2cc5f14610414578063c5c4744c1461042d575f80fd5b80633cb5d1001161011e5780633cb5d1001461024d5780633ededdca1461028457806342e94c90146102b757806345fe3db6146102e257806363cea4501461031557806366349e3f14610329575f80fd5b80630b5c7f79146101775780630ba2d8751461019e57806321eff7fc146101bd57806322f3e2d4146101f1578063253da8bd1461021557806337f3061d14610229575f80fd5b366101735761017161053d565b005b5f80fd5b348015610182575f80fd5b5061018b610984565b6040519081526020015b60405180910390f35b3480156101a9575f80fd5b5061018b6101b8366004610eb3565b6109c6565b3480156101c8575f80fd5b5061018b6101d7366004610eb3565b6001600160a01b03165f9081526003602052604090205490565b3480156101fc575f80fd5b50610205610a4a565b6040519015158152602001610195565b348015610220575f80fd5b5060055461018b565b348015610234575f80fd5b5061023d610a68565b6040516101959493929190610f13565b348015610258575f80fd5b5061026c610267366004610fc1565b610d0d565b6040516001600160a01b039091168152602001610195565b34801561028f575f80fd5b5061018b7f000000000000000000000000000000000000000000000000000000000000000081565b3480156102c2575f80fd5b5061018b6102d1366004610eb3565b60036020525f908152604090205481565b3480156102ed575f80fd5b5061018b7f000000000000000000000000000000000000000000000000000000000000000081565b348015610320575f80fd5b50610171610d35565b348015610334575f80fd5b5061026c610343366004610fc1565b610e07565b348015610353575f80fd5b5061018b7f000000000000000000000000000000000000000000000000000000000000000081565b348015610386575f80fd5b5061026c7f000000000000000000000000000000000000000000000000000000000000000081565b3480156103b9575f80fd5b5061018b7f000000000000000000000000000000000000000000000000000000000000000081565b3480156103ec575f80fd5b5061018b7f000000000000000000000000000000000000000000000000000000000000000081565b34801561041f575f80fd5b506001546102059060ff1681565b348015610438575f80fd5b5061018b5f5481565b34801561044c575f80fd5b5061020561045b366004610eb3565b6001600160a01b03165f9081526004602052604090205460ff1690565b61017161053d565b34801561048b575f80fd5b5061018b610e35565b34801561049f575f80fd5b506102056104ae366004610eb3565b60046020525f908152604090205460ff1681565b3480156104cd575f80fd5b5061018b7f000000000000000000000000000000000000000000000000000000000000000081565b348015610500575f80fd5b5061018b60025481565b348015610515575f80fd5b5061026c7f000000000000000000000000000000000000000000000000000000000000000081565b60015460ff161561056157604051633844da5760e21b815260040160405180910390fd5b610569610e6e565b1561058757604051633844da5760e21b815260040160405180910390fd5b7f00000000000000000000000000000000000000000000000000000000000000003410156105c85760405163860b82a960e01b815260040160405180910390fd5b335f908152600360205260409020547f000000000000000000000000000000000000000000000000000000000000000090610604903490610fec565b11156106235760405163973f732360e01b815260040160405180910390fd5b7f0000000000000000000000000000000000000000000000000000000000000000345f546106519190610fec565b111561067057604051631c4af3c960e11b815260040160405180910390fd5b335f9081526003602052604081205490036106c757600580546001810182555f919091527f036b6384b5eca791c62761152d0c79bb0604c104a5fb6f4eb0703f3154bb3db00180546001600160a01b031916331790555b335f90815260036020526040812080543492906106e5908490610fec565b92505081905550345f808282546106fc9190610fec565b90915550506040515f906001600160a01b037f0000000000000000000000000000000000000000000000000000000000000000169034908381818185875af1925050503d805f8114610769576040519150601f19603f3d011682016040523d82523d5f602084013e61076e565b606091505b50509050806107bb5760405162461bcd60e51b815260206004820152601560248201527415985d5b1d081d1c985b9cd9995c8819985a5b1959605a1b604482015260640160405180910390fd5b6040513481527f2757d7b2210ca2de054c1b38766cf1b70216bfebdf637165165fb5094d196d239060200160405180910390a1335f8181526004602090815260408083205460038352928190205481513481529283015260ff9092168015158284015291519192917fa3cf76d32602a2a687abed22e487ac1357d386fecf9be68fe771f9c97606f3c39181900360600190a260025415801561087e57507f00000000000000000000000000000000000000000000000000000000000000005f5410155b156108cb574260028190555f546040517fb43ca1b105f16771375b5b40a413666f837e4732dc6dd193f408c02736edac85926108c292908252602082015260400190565b60405180910390a15b7f00000000000000000000000000000000000000000000000000000000000000005f5410610980576001805460ff1916811790555f546040805142815260208101929092527f328a2ffd6bbbab3bf0382571d9b19323a57d818bdb59d451f3b64d37f1dd177a910160405180910390a15f546005546040805142815260208101939093528201527f5da22814a78befc9c5eac3131b83ce43a0c84a2c80d129f969b4a70bb7f636fa9060600160405180910390a15b5050565b5f6002545f0361099357505f90565b7f00000000000000000000000000000000000000000000000000000000000000006002546109c19190610fec565b905090565b6001600160a01b0381165f90815260036020908152604080832054600490925282205460ff1680156109f757505f81115b15610a4457612710610a297f000000000000000000000000000000000000000000000000000000000000000083610fff565b610a339190611016565b610a3d9082610fec565b9392505050565b92915050565b6001545f9060ff161580156109c15750610a62610e6e565b15905090565b6005546060908190819081908067ffffffffffffffff811115610a8d57610a8d611035565b604051908082528060200260200182016040528015610ab6578160200160208202803683370190505b5094508067ffffffffffffffff811115610ad257610ad2611035565b604051908082528060200260200182016040528015610afb578160200160208202803683370190505b5093508067ffffffffffffffff811115610b1757610b17611035565b604051908082528060200260200182016040528015610b40578160200160208202803683370190505b5092508067ffffffffffffffff811115610b5c57610b5c611035565b604051908082528060200260200182016040528015610b85578160200160208202803683370190505b5091505f5b81811015610d055760058181548110610ba557610ba5611049565b905f5260205f20015f9054906101000a90046001600160a01b0316868281518110610bd257610bd2611049565b60200260200101906001600160a01b031690816001600160a01b03168152505060035f60058381548110610c0857610c08611049565b5f9182526020808320909101546001600160a01b031683528201929092526040019020548551869083908110610c4057610c40611049565b602002602001018181525050610c7b60058281548110610c6257610c62611049565b5f918252602090912001546001600160a01b03166109c6565b848281518110610c8d57610c8d611049565b60200260200101818152505060045f60058381548110610caf57610caf611049565b5f9182526020808320909101546001600160a01b03168352820192909252604001902054835160ff90911690849083908110610ced57610ced611049565b91151560209283029190910190910152600101610b8a565b505090919293565b60058181548110610d1c575f80fd5b5f918252602090912001546001600160a01b0316905081565b60015460ff1615610d5957604051634d65bf2960e11b815260040160405180910390fd5b336001600160a01b037f00000000000000000000000000000000000000000000000000000000000000001614801590610d975750610d95610e6e565b155b15610db557604051635fc483c560e01b815260040160405180910390fd5b6001805460ff1916811790555f546005546040805142815260208101939093528201527f5da22814a78befc9c5eac3131b83ce43a0c84a2c80d129f969b4a70bb7f636fa9060600160405180910390a1565b5f60058281548110610e1b57610e1b611049565b5f918252602090912001546001600160a01b031692915050565b5f80610e3f610984565b9050805f03610e50575f1991505090565b804210610e5e575f91505090565b610e68428261105d565b91505090565b5f6002545f03610e7d57505f90565b7f0000000000000000000000000000000000000000000000000000000000000000600254610eab9190610fec565b421015905090565b5f60208284031215610ec3575f80fd5b81356001600160a01b0381168114610a3d575f80fd5b5f815180845260208085019450602084015f5b83811015610f0857815187529582019590820190600101610eec565b509495945050505050565b608080825285519082018190525f9060209060a0840190828901845b82811015610f545781516001600160a01b031684529284019290840190600101610f2f565b50505083810382850152610f688188610ed9565b90508381036040850152610f7c8187610ed9565b848103606086015285518082528387019250908301905f5b81811015610fb2578351151583529284019291840191600101610f94565b50909998505050505050505050565b5f60208284031215610fd1575f80fd5b5035919050565b634e487b7160e01b5f52601160045260245ffd5b80820180821115610a4457610a44610fd8565b8082028115828204841417610a4457610a44610fd8565b5f8261103057634e487b7160e01b5f52601260045260245ffd5b500490565b634e487b7160e01b5f52604160045260245ffd5b634e487b7160e01b5f52603260045260245ffd5b81810381811115610a4457610a44610fd856fea2646970667358221220e7242875ba09f7e7af7de02214db40eac6bcc9feebb407860633b2192d627bf964736f6c63430008180033","linkReferences":{}},"methodIdentifiers":{"closePresale()":"63cea450","contribute()":"d7bb99ba","contributions(address)":"42e94c90","contributors(uint256)":"3cb5d100","getAllContributions()":"37f3061d","getAllocationWeight(address)":"0ba2d875","getContribution(address)":"21eff7fc","getContributorAt(uint256)":"66349e3f","getContributorCount()":"253da8bd","hardCap()":"fb86a404","hardCapDeadline()":"0b5c7f79","hardCapDuration()":"45fe3db6","isActive()":"22f3e2d4","isOG(address)":"c83271f5","maxContribution()":"8d3d6576","minContribution()":"aaffadf3","ogBonusBps()":"3ededdca","ogWhitelist(address)":"f4b2afc5","owner()":"8da5cb5b","presaleClosed()":"abd2cc5f","softCap()":"906a26e0","softCapReachedAt()":"fbaf0d55","timeRemaining()":"e3cfef60","totalRaised()":"c5c4744c","vault()":"fbfa77cf"},"id":19}