{"abi":[{"type":"constructor","inputs":[{"name":"_startTime","type":"uint256","internalType":"uint256"},{"name":"_vault","type":"address","internalType":"address payable"},{"name":"_ogWallets","type":"address[]","internalType":"address[]"}],"stateMutability":"nonpayable"},{"type":"receive","stateMutability":"payable"},{"type":"function","name":"closePresale","inputs":[],"outputs":[],"stateMutability":"nonpayable"},{"type":"function","name":"contribute","inputs":[],"outputs":[],"stateMutability":"payable"},{"type":"function","name":"contributions","inputs":[{"name":"","type":"address","internalType":"address"}],"outputs":[{"name":"","type":"uint256","internalType":"uint256"}],"stateMutability":"view"},{"type":"function","name":"contributors","inputs":[{"name":"","type":"uint256","internalType":"uint256"}],"outputs":[{"name":"","type":"address","internalType":"address"}],"stateMutability":"view"},{"type":"function","name":"getAllContributions","inputs":[],"outputs":[{"name":"wallets","type":"address[]","internalType":"address[]"},{"name":"amounts","type":"uint256[]","internalType":"uint256[]"},{"name":"weights","type":"uint256[]","internalType":"uint256[]"},{"name":"isOGList","type":"bool[]","internalType":"bool[]"}],"stateMutability":"view"},{"type":"function","name":"getAllocationWeight","inputs":[{"name":"wallet","type":"address","internalType":"address"}],"outputs":[{"name":"","type":"uint256","internalType":"uint256"}],"stateMutability":"view"},{"type":"function","name":"getContribution","inputs":[{"name":"wallet","type":"address","internalType":"address"}],"outputs":[{"name":"","type":"uint256","internalType":"uint256"}],"stateMutability":"view"},{"type":"function","name":"getContributorAt","inputs":[{"name":"index","type":"uint256","internalType":"uint256"}],"outputs":[{"name":"","type":"address","internalType":"address"}],"stateMutability":"view"},{"type":"function","name":"getContributorCount","inputs":[],"outputs":[{"name":"","type":"uint256","internalType":"uint256"}],"stateMutability":"view"},{"type":"function","name":"hardCap","inputs":[],"outputs":[{"name":"","type":"uint256","internalType":"uint256"}],"stateMutability":"view"},{"type":"function","name":"hardCapDeadline","inputs":[],"outputs":[{"name":"","type":"uint256","internalType":"uint256"}],"stateMutability":"view"},{"type":"function","name":"hardCapDuration","inputs":[],"outputs":[{"name":"","type":"uint256","internalType":"uint256"}],"stateMutability":"view"},{"type":"function","name":"isActive","inputs":[],"outputs":[{"name":"","type":"bool","internalType":"bool"}],"stateMutability":"view"},{"type":"function","name":"isOG","inputs":[{"name":"wallet","type":"address","internalType":"address"}],"outputs":[{"name":"","type":"bool","internalType":"bool"}],"stateMutability":"view"},{"type":"function","name":"isStarted","inputs":[],"outputs":[{"name":"","type":"bool","internalType":"bool"}],"stateMutability":"view"},{"type":"function","name":"maxContribution","inputs":[],"outputs":[{"name":"","type":"uint256","internalType":"uint256"}],"stateMutability":"view"},{"type":"function","name":"minContribution","inputs":[],"outputs":[{"name":"","type":"uint256","internalType":"uint256"}],"stateMutability":"view"},{"type":"function","name":"ogBonusBps","inputs":[],"outputs":[{"name":"","type":"uint256","internalType":"uint256"}],"stateMutability":"view"},{"type":"function","name":"ogWhitelist","inputs":[{"name":"","type":"address","internalType":"address"}],"outputs":[{"name":"","type":"bool","internalType":"bool"}],"stateMutability":"view"},{"type":"function","name":"owner","inputs":[],"outputs":[{"name":"","type":"address","internalType":"address"}],"stateMutability":"view"},{"type":"function","name":"presaleClosed","inputs":[],"outputs":[{"name":"","type":"bool","internalType":"bool"}],"stateMutability":"view"},{"type":"function","name":"remainingCapacity","inputs":[],"outputs":[{"name":"","type":"uint256","internalType":"uint256"}],"stateMutability":"view"},{"type":"function","name":"rescueTokens","inputs":[{"name":"token","type":"address","internalType":"address"},{"name":"to","type":"address","internalType":"address"},{"name":"amount","type":"uint256","internalType":"uint256"}],"outputs":[],"stateMutability":"nonpayable"},{"type":"function","name":"softCap","inputs":[],"outputs":[{"name":"","type":"uint256","internalType":"uint256"}],"stateMutability":"view"},{"type":"function","name":"softCapReachedAt","inputs":[],"outputs":[{"name":"","type":"uint256","internalType":"uint256"}],"stateMutability":"view"},{"type":"function","name":"startTime","inputs":[],"outputs":[{"name":"","type":"uint256","internalType":"uint256"}],"stateMutability":"view"},{"type":"function","name":"timeRemaining","inputs":[],"outputs":[{"name":"","type":"uint256","internalType":"uint256"}],"stateMutability":"view"},{"type":"function","name":"totalRaised","inputs":[],"outputs":[{"name":"","type":"uint256","internalType":"uint256"}],"stateMutability":"view"},{"type":"function","name":"vault","inputs":[],"outputs":[{"name":"","type":"address","internalType":"address payable"}],"stateMutability":"view"},{"type":"event","name":"Contributed","inputs":[{"name":"contributor","type":"address","indexed":true,"internalType":"address"},{"name":"amount","type":"uint256","indexed":false,"internalType":"uint256"},{"name":"totalContribution","type":"uint256","indexed":false,"internalType":"uint256"},{"name":"isOG","type":"bool","indexed":false,"internalType":"bool"}],"anonymous":false},{"type":"event","name":"HardCapReached","inputs":[{"name":"timestamp","type":"uint256","indexed":false,"internalType":"uint256"},{"name":"totalRaised","type":"uint256","indexed":false,"internalType":"uint256"}],"anonymous":false},{"type":"event","name":"OGWhitelisted","inputs":[{"name":"wallet","type":"address","indexed":true,"internalType":"address"}],"anonymous":false},{"type":"event","name":"PartialFill","inputs":[{"name":"contributor","type":"address","indexed":true,"internalType":"address"},{"name":"accepted","type":"uint256","indexed":false,"internalType":"uint256"},{"name":"returned","type":"uint256","indexed":false,"internalType":"uint256"}],"anonymous":false},{"type":"event","name":"PresaleClosed","inputs":[{"name":"timestamp","type":"uint256","indexed":false,"internalType":"uint256"},{"name":"totalRaised","type":"uint256","indexed":false,"internalType":"uint256"},{"name":"numContributors","type":"uint256","indexed":false,"internalType":"uint256"}],"anonymous":false},{"type":"event","name":"SoftCapReached","inputs":[{"name":"timestamp","type":"uint256","indexed":false,"internalType":"uint256"},{"name":"totalRaised","type":"uint256","indexed":false,"internalType":"uint256"}],"anonymous":false},{"type":"event","name":"TokensRescued","inputs":[{"name":"token","type":"address","indexed":true,"internalType":"address"},{"name":"to","type":"address","indexed":true,"internalType":"address"},{"name":"amount","type":"uint256","indexed":false,"internalType":"uint256"}],"anonymous":false},{"type":"event","name":"VaultForwarded","inputs":[{"name":"amount","type":"uint256","indexed":false,"internalType":"uint256"}],"anonymous":false},{"type":"error","name":"AboveMaximum","inputs":[]},{"type":"error","name":"AlreadyClosed","inputs":[]},{"type":"error","name":"BelowMinimum","inputs":[]},{"type":"error","name":"NotStarted","inputs":[]},{"type":"error","name":"OnlyOwner","inputs":[]},{"type":"error","name":"PresaleNotActive","inputs":[]},{"type":"error","name":"RescueFailed","inputs":[]}],"bytecode":{"object":"0x6101a060405234801562000011575f80fd5b506040516200186738038062001867833981016040819052620000349162000191565b336080526001600160a01b03821660a052674563918244f4000060c05267ad78ebc5ac62000060e052662386f26fc1000061010052670de0b6b3a76400006101205262069780610140526103e8610160526101808390525f5b81518110156200014957600160045f848481518110620000b157620000b16200027e565b60200260200101516001600160a01b03166001600160a01b031681526020019081526020015f205f6101000a81548160ff0219169083151502179055508181815181106200010357620001036200027e565b60200260200101516001600160a01b03167fa8e424685464c3675091d941214db8b5b879573c5c9a521a99353a538eaa204260405160405180910390a26001016200008d565b5050505062000292565b6001600160a01b038116811462000168575f80fd5b50565b634e487b7160e01b5f52604160045260245ffd5b80516200018c8162000153565b919050565b5f805f60608486031215620001a4575f80fd5b83519250602080850151620001b98162000153565b60408601519093506001600160401b0380821115620001d6575f80fd5b818701915087601f830112620001ea575f80fd5b815181811115620001ff57620001ff6200016b565b8060051b604051601f19603f830116810181811085821117156200022757620002276200016b565b60405291825284820192508381018501918a83111562000245575f80fd5b938501935b828510156200026e576200025e856200017f565b845293850193928501926200024a565b8096505050505050509250925092565b634e487b7160e01b5f52603260045260245ffd5b60805160a05160c05160e05161010051610120516101405161016051610180516114f86200036f5f395f818161037c015281816103e7015281816106330152610c8401525f81816102ee0152610c3b01525f818161034c01528181610bcc015261126b01525f818161041a015261070e01525f81816104c701526106be01525f81816105c70152818161075f0152818161079901528181610b020152818161109b01526110ce01525f81816104800152610a8f01525f818161060f015261086c01525f818161044d01528181610fc701526110fd01526114f85ff3fe6080604052600436106101bd575f3560e01c80638d3d6576116100f2578063c83271f511610092578063f4b2afc511610062578063f4b2afc514610588578063fb86a404146105b6578063fbaf0d55146105e9578063fbfa77cf146105fe575f80fd5b8063c83271f514610516578063cea9d26f1461054d578063d7bb99ba1461056c578063e3cfef6014610574575f80fd5b8063a78c7b08116100cd578063a78c7b08146104a2578063aaffadf3146104b6578063abd2cc5f146104e9578063c5c4744c14610502575f80fd5b80638d3d6576146104095780638da5cb5b1461043c578063906a26e01461046f575f80fd5b80633ededdca1161015d578063544736e611610138578063544736e61461036e57806363cea450146103a357806366349e3f146103b757806378e97925146103d6575f80fd5b80633ededdca146102dd57806342e94c901461031057806345fe3db61461033b575f80fd5b806322f3e2d41161019857806322f3e2d41461024a578063253da8bd1461026e57806337f3061d146102825780633cb5d100146102a6575f80fd5b80630b5c7f79146101d05780630ba2d875146101f757806321eff7fc14610216575f80fd5b366101cc576101ca610631565b005b5f80fd5b3480156101db575f80fd5b506101e4610bbb565b6040519081526020015b60405180910390f35b348015610202575f80fd5b506101e46102113660046112ba565b610bfd565b348015610221575f80fd5b506101e46102303660046112ba565b6001600160a01b03165f9081526003602052604090205490565b348015610255575f80fd5b5061025e610c81565b60405190151581526020016101ee565b348015610279575f80fd5b506005546101e4565b34801561028d575f80fd5b50610296610ccb565b6040516101ee949392919061130d565b3480156102b1575f80fd5b506102c56102c03660046113bb565b610f70565b6040516001600160a01b0390911681526020016101ee565b3480156102e8575f80fd5b506101e47f000000000000000000000000000000000000000000000000000000000000000081565b34801561031b575f80fd5b506101e461032a3660046112ba565b60036020525f908152604090205481565b348015610346575f80fd5b506101e47f000000000000000000000000000000000000000000000000000000000000000081565b348015610379575f80fd5b507f000000000000000000000000000000000000000000000000000000000000000042101561025e565b3480156103ae575f80fd5b506101ca610f98565b3480156103c2575f80fd5b506102c56103d13660046113bb565b61106a565b3480156103e1575f80fd5b506101e47f000000000000000000000000000000000000000000000000000000000000000081565b348015610414575f80fd5b506101e47f000000000000000000000000000000000000000000000000000000000000000081565b348015610447575f80fd5b506102c57f000000000000000000000000000000000000000000000000000000000000000081565b34801561047a575f80fd5b506101e47f000000000000000000000000000000000000000000000000000000000000000081565b3480156104ad575f80fd5b506101e4611098565b3480156104c1575f80fd5b506101e47f000000000000000000000000000000000000000000000000000000000000000081565b3480156104f4575f80fd5b5060015461025e9060ff1681565b34801561050d575f80fd5b506101e45f5481565b348015610521575f80fd5b5061025e6105303660046112ba565b6001600160a01b03165f9081526004602052604090205460ff1690565b348015610558575f80fd5b506101ca6105673660046113d2565b6110f2565b6101ca610631565b34801561057f575f80fd5b506101e4611221565b348015610593575f80fd5b5061025e6105a23660046112ba565b60046020525f908152604090205460ff1681565b3480156105c1575f80fd5b506101e47f000000000000000000000000000000000000000000000000000000000000000081565b3480156105f4575f80fd5b506101e460025481565b348015610609575f80fd5b506102c57f000000000000000000000000000000000000000000000000000000000000000081565b7f000000000000000000000000000000000000000000000000000000000000000042101561067257604051636f312cbd60e01b815260040160405180910390fd5b60015460ff161561069657604051633844da5760e21b815260040160405180910390fd5b61069e61125a565b156106bc57604051633844da5760e21b815260040160405180910390fd5b7f00000000000000000000000000000000000000000000000000000000000000003410156106fd5760405163860b82a960e01b815260040160405180910390fd5b335f908152600360205260409020547f00000000000000000000000000000000000000000000000000000000000000009061073990349061141f565b11156107585760405163973f732360e01b815260040160405180910390fd5b5f3490505f7f0000000000000000000000000000000000000000000000000000000000000000825f5461078b919061141f565b11156107cc575f546107bd907f0000000000000000000000000000000000000000000000000000000000000000611432565b91506107c98234611432565b90505b335f90815260036020526040812054900361082357600580546001810182555f919091527f036b6384b5eca791c62761152d0c79bb0604c104a5fb6f4eb0703f3154bb3db00180546001600160a01b031916331790555b335f908152600360205260408120805484929061084190849061141f565b92505081905550815f80828254610858919061141f565b90915550506040515f906001600160a01b037f0000000000000000000000000000000000000000000000000000000000000000169084908381818185875af1925050503d805f81146108c5576040519150601f19603f3d011682016040523d82523d5f602084013e6108ca565b606091505b50509050806109185760405162461bcd60e51b815260206004820152601560248201527415985d5b1d081d1c985b9cd9995c8819985a5b1959605a1b60448201526064015b60405180910390fd5b6040518381527f2757d7b2210ca2de054c1b38766cf1b70216bfebdf637165165fb5094d196d239060200160405180910390a18115610a23576040515f90339084908381818185875af1925050503d805f8114610990576040519150601f19603f3d011682016040523d82523d5f602084013e610995565b606091505b50509050806109e65760405162461bcd60e51b815260206004820152601760248201527f526566756e64206f6620657863657373206661696c6564000000000000000000604482015260640161090f565b604080518581526020810185905233917f72390a3dd1fc2a8e7830114a0acff45da2e3eb7440b7c7c79dc9a1eda1d5ce3c910160405180910390a2505b335f8181526004602090815260408083205460038352928190205481518881529283015260ff9092168015158284015291519192917fa3cf76d32602a2a687abed22e487ac1357d386fecf9be68fe771f9c97606f3c39181900360600190a2600254158015610ab357507f00000000000000000000000000000000000000000000000000000000000000005f5410155b15610b00574260028190555f546040517fb43ca1b105f16771375b5b40a413666f837e4732dc6dd193f408c02736edac8592610af792908252602082015260400190565b60405180910390a15b7f00000000000000000000000000000000000000000000000000000000000000005f5410610bb5576001805460ff1916811790555f546040805142815260208101929092527f328a2ffd6bbbab3bf0382571d9b19323a57d818bdb59d451f3b64d37f1dd177a910160405180910390a15f546005546040805142815260208101939093528201527f5da22814a78befc9c5eac3131b83ce43a0c84a2c80d129f969b4a70bb7f636fa9060600160405180910390a15b50505050565b5f6002545f03610bca57505f90565b7f0000000000000000000000000000000000000000000000000000000000000000600254610bf8919061141f565b905090565b6001600160a01b0381165f90815260036020908152604080832054600490925282205460ff168015610c2e57505f81115b15610c7b57612710610c607f000000000000000000000000000000000000000000000000000000000000000083611445565b610c6a919061145c565b610c74908261141f565b9392505050565b92915050565b5f7f0000000000000000000000000000000000000000000000000000000000000000421015610caf57505f90565b60015460ff16158015610bf85750610cc561125a565b15905090565b6005546060908190819081908067ffffffffffffffff811115610cf057610cf061147b565b604051908082528060200260200182016040528015610d19578160200160208202803683370190505b5094508067ffffffffffffffff811115610d3557610d3561147b565b604051908082528060200260200182016040528015610d5e578160200160208202803683370190505b5093508067ffffffffffffffff811115610d7a57610d7a61147b565b604051908082528060200260200182016040528015610da3578160200160208202803683370190505b5092508067ffffffffffffffff811115610dbf57610dbf61147b565b604051908082528060200260200182016040528015610de8578160200160208202803683370190505b5091505f5b81811015610f685760058181548110610e0857610e0861148f565b905f5260205f20015f9054906101000a90046001600160a01b0316868281518110610e3557610e3561148f565b60200260200101906001600160a01b031690816001600160a01b03168152505060035f60058381548110610e6b57610e6b61148f565b5f9182526020808320909101546001600160a01b031683528201929092526040019020548551869083908110610ea357610ea361148f565b602002602001018181525050610ede60058281548110610ec557610ec561148f565b5f918252602090912001546001600160a01b0316610bfd565b848281518110610ef057610ef061148f565b60200260200101818152505060045f60058381548110610f1257610f1261148f565b5f9182526020808320909101546001600160a01b03168352820192909252604001902054835160ff90911690849083908110610f5057610f5061148f565b91151560209283029190910190910152600101610ded565b505090919293565b60058181548110610f7f575f80fd5b5f918252602090912001546001600160a01b0316905081565b60015460ff1615610fbc57604051634d65bf2960e11b815260040160405180910390fd5b336001600160a01b037f00000000000000000000000000000000000000000000000000000000000000001614801590610ffa5750610ff861125a565b155b1561101857604051635fc483c560e01b815260040160405180910390fd5b6001805460ff1916811790555f546005546040805142815260208101939093528201527f5da22814a78befc9c5eac3131b83ce43a0c84a2c80d129f969b4a70bb7f636fa9060600160405180910390a1565b5f6005828154811061107e5761107e61148f565b5f918252602090912001546001600160a01b031692915050565b5f7f00000000000000000000000000000000000000000000000000000000000000005f54106110c657505f90565b5f54610bf8907f0000000000000000000000000000000000000000000000000000000000000000611432565b336001600160a01b037f0000000000000000000000000000000000000000000000000000000000000000161461113b57604051635fc483c560e01b815260040160405180910390fd5b60405163a9059cbb60e01b81526001600160a01b038381166004830152602482018390525f919085169063a9059cbb906044016020604051808303815f875af115801561118a573d5f803e3d5ffd5b505050506040513d601f19601f820116820180604052508101906111ae91906114a3565b9050806111ce5760405163b8eaf7a160e01b815260040160405180910390fd5b826001600160a01b0316846001600160a01b03167f77023e19c7343ad491fd706c36335ca0e738340a91f29b1fd81e2673d44896c48460405161121391815260200190565b60405180910390a350505050565b5f8061122b610bbb565b9050805f0361123c575f1991505090565b80421061124a575f91505090565b6112544282611432565b91505090565b5f6002545f0361126957505f90565b7f0000000000000000000000000000000000000000000000000000000000000000600254611297919061141f565b421015905090565b80356001600160a01b03811681146112b5575f80fd5b919050565b5f602082840312156112ca575f80fd5b610c748261129f565b5f815180845260208085019450602084015f5b83811015611302578151875295820195908201906001016112e6565b509495945050505050565b608080825285519082018190525f9060209060a0840190828901845b8281101561134e5781516001600160a01b031684529284019290840190600101611329565b5050508381038285015261136281886112d3565b9050838103604085015261137681876112d3565b848103606086015285518082528387019250908301905f5b818110156113ac57835115158352928401929184019160010161138e565b50909998505050505050505050565b5f602082840312156113cb575f80fd5b5035919050565b5f805f606084860312156113e4575f80fd5b6113ed8461129f565b92506113fb6020850161129f565b9150604084013590509250925092565b634e487b7160e01b5f52601160045260245ffd5b80820180821115610c7b57610c7b61140b565b81810381811115610c7b57610c7b61140b565b8082028115828204841417610c7b57610c7b61140b565b5f8261147657634e487b7160e01b5f52601260045260245ffd5b500490565b634e487b7160e01b5f52604160045260245ffd5b634e487b7160e01b5f52603260045260245ffd5b5f602082840312156114b3575f80fd5b81518015158114610c74575f80fdfea2646970667358221220f7d27c9a645f5263910a5bbef7869e5f247bdf6a51afbbc2a0b2261f5ab9e99564736f6c63430008180033","linkReferences":{}},"methodIdentifiers":{"closePresale()":"63cea450","contribute()":"d7bb99ba","contributions(address)":"42e94c90","contributors(uint256)":"3cb5d100","getAllContributions()":"37f3061d","getAllocationWeight(address)":"0ba2d875","getContribution(address)":"21eff7fc","getContributorAt(uint256)":"66349e3f","getContributorCount()":"253da8bd","hardCap()":"fb86a404","hardCapDeadline()":"0b5c7f79","hardCapDuration()":"45fe3db6","isActive()":"22f3e2d4","isOG(address)":"c83271f5","isStarted()":"544736e6","maxContribution()":"8d3d6576","minContribution()":"aaffadf3","ogBonusBps()":"3ededdca","ogWhitelist(address)":"f4b2afc5","owner()":"8da5cb5b","presaleClosed()":"abd2cc5f","remainingCapacity()":"a78c7b08","rescueTokens(address,address,uint256)":"cea9d26f","softCap()":"906a26e0","softCapReachedAt()":"fbaf0d55","startTime()":"78e97925","timeRemaining()":"e3cfef60","totalRaised()":"c5c4744c","vault()":"fbfa77cf"},"id":19}